:100000000C9434000C9451000C9451000C94510049
:100010000C94DB010C9451000C9451000C94510091
:100020000C9451000C9451000C9451000C9451000C
:100030000C9451000C9451000C9451000C945100FC
:100040000C9451000C9451000C9451000C945100EC
:100050000C9451000C9451000C9451000C945100DC
:100060000C9451000C94510011241FBECFEFD8E026
:10007000DEBFCDBF11E0A0E0B1E0E8E7F6E002C0EE
:1000800005900D92A636B107D9F721E0A6E6B1E0BA
:1000900001C01D92AA36B207E1F70E9456010C94E6
:1000A0003A030C940000AF92BF92CF92DF92EF928E
:1000B000FF920F931F93CF93DF93CDB7DEB7C45654
:1000C000D1090FB6F894DEBF0FBECDBF9C0180E50D
:1000D000E2E0F1E0DE01119601900D928A95E1F7E0
:1000E00084E1E2E5F1E0DE01AF5ABF4F01900D92ED
:1000F0008A95E1F790E04BC0809100016091670123
:10010000482F462BA92FB0E0FD01EE0FFF1FEA0F8D
:10011000FB1FEE0FFF1F5F01A20EB31EF501408310
:10012000AD01440F551F440F551F01E010E00C0FA7
:100130001D1F400F511FFA01C080D180E280F38063
:10014000F501C182D282E382F48201E510E00C0F56
:100150001D1FA00FB11F4C91458340916601443093
:1001600078F01092660188E080930001611104C06C
:1001700081E0809367010AC0660F6093670106C043
:100180004F5F40936601880F809300019F5F943119
:1001900008F4B2CFCC59DF4F0FB6F894DEBF0FBED4
:1001A000CDBFDF91CF911F910F91FF90EF90DF9026
:1001B000CF90BF90AF900895BF92CF92DF92EF9211
:1001C000FF920F931F93CF93DF9300D000D000D006
:1001D000CDB7DEB749835A836B837C838D839E833F
:1001E00084B1826084B984B1846084B901E810E08C
:1001F00088E1F80180836894EE24E7F8F12C0F2E53
:10020000F0E5BF2EF02DF701B0828A819B81AC8191
:10021000BD810F2EF6E8CF2ED12CF02DF601918363
:1002200080836081718180E090E00E943F022AE03B
:1002300037ED43EA5CE30E94A5020E940902709335
:10024000890060938800F6016081718180E090E010
:100250000E943F022CE53FE842E05FE30E94A502D6
:100260000E94090270938B0060938A0010928500AF
:100270001092840080EAF701808380EC80938200F2
:10028000B082F80190818E81892B808326960FB6EB
:10029000F894DEBF0FBECDBFDF91CF911F910F91BC
:1002A000FF90EF90DF90CF90BF900895CF93DF93B2
:1002B000CDB7DEB7C857D1090FB6F894DEBF0FBE71
:1002C000CDBF8FEF8AB987B18F7D87B990E298B99A
:1002D000E8E6F0E080818260808390936C007894FF
:1002E000CE0101960E9453000091010180916901A5
:1002F000082B49815A816B817C818D819E810E946E
:10030000DC001091010180916901182B1BB90113C8
:1003100028C0F7CF282F30E0F901EE0FFF1FE20FC2
:10032000F31FEE0FFF1F41E050E04C0F5D1FE40F85
:10033000F51F9081191313C0F901EE0FFF1FE20F93
:10034000F31FEE0FFF1FE40FF51F492F518162814C
:100350007381848195810E94DC00012FD2CF8F5F51
:1003600001C080E08431B0F2012FCBCF80916901D0
:10037000843018F01092690108958091690181110B
:1003800004C081E080936901089580916901880F1C
:1003900080936901089580910101882334F488E0F5
:1003A000809301010E94B601089580910101880F98
:1003B0008093010108951F920F920FB60F9211249E
:1003C0002F933F934F935F936F937F938F939F935D
:1003D000AF93BF93EF93FF9380916801811106C0A3
:1003E00081E0809368010E94CB0102C010926801F5
:1003F000FF91EF91BF91AF919F918F917F916F91FD
:100400005F914F913F912F910F900FBE0F901F90D2
:1004100018950E9410026894B1110C949F020895DF
:100420000E94840288F09F5798F0B92F9927B751FE
:10043000B0F0E1F0660F771F881F991F1AF0BA9588
:10044000C9F714C0B13091F00E949E02B1E0089546
:100450000C949E02672F782F8827B85F39F0B93F38
:10046000CCF3869577956795B395D9F73EF490953B
:100470008095709561957F4F8F4F9F4F0895E894B9
:1004800009C097FB3EF490958095709561957F4FDC
:100490008F4F9F4F9923A9F0F92F96E9BB2793958A
:1004A000F695879577956795B795F111F8CFFAF49A
:1004B000BB0F11F460FF1BC06F5F7F4F8F4F9F4FCB
:1004C00016C0882311F096E911C0772321F09EE829
:1004D000872F762F05C0662371F096E8862F70E08F
:1004E00060E02AF09A95660F771F881FDAF7880F69
:1004F0009695879597F9089557FD9058440F551F85
:1005000059F05F3F71F04795880F97FB991F61F095
:100510009F3F79F087950895121613061406551F0C
:10052000F2CF4695F1DF08C0161617061806991F78
:10053000F1CF86957105610508940895E894BB276D
:1005400066277727CB0197F908950E94B8020C948B
:1005500029030E941B0338F00E94220320F09523F8
:1005600011F00C9412030C94180311240C949F02A4
:100570000E947C0270F3959FC1F3950F50E0551FC8
:10058000629FF001729FBB27F00DB11D639FAA27E8
:10059000F00DB11DAA1F649F6627B00DA11D661F37
:1005A000829F2227B00DA11D621F739FB00DA11D58
:1005B000621F839FA00D611D221F749F3327A00D12
:1005C000611D231F849F600D211D822F762F6A2FAE
:1005D00011249F5750409AF0F1F088234AF0EE0F13
:1005E000FF1FBB1F661F771F881F91505040A9F740
:1005F0009E3F510580F00C9412030C949F025F3FC4
:10060000E4F3983ED4F3869577956795B795F7957B
:10061000E7959F5FC1F7FE2B880F911D96958795F3
:1006200097F9089597F99F6780E870E060E0089572
:100630009FEF80EC089500240A94161617061806FA
:100640000906089500240A941216130614060506D6
:100650000895092E0394000C11F4882352F0BB0F67
:1006600040F4BF2B11F460FF04C06F5F7F4F8F4FCA
:080670009F4F0895F894FFCF9D
:1006780008085F540000BFA800005F5400003F381E
:1006880000002F2A0000BF210000FF8600007F43E2
:100698000000FF2C0000BF210000FFD70000FF6B07
:1006A8000000FF350000FF230000FF1A0000991525
:1006B8000000CC0A00006505000099030000B202A2
:1006C8000000040303030303020202020101010103
:0606D80001010101010116
:00000001FF
